:020000040800F2
:1000000000000A20A14D0108F14D0108F14D010841
:10001000F14D0108F14D0108F14D0108000000000B
:10002000000000000000000000000000F14D010889
:10003000F14D010800000000F14D0108871701088B
:10004000F14D0108F14D0108F14D0108F14D010894
:10005000F14D0108F14D0108351A01083B1A01085C
:10006000411A0108471A01084D1A0108F14D01080B
:10007000F14D0108F14D0108F14D0108F14D010864
:10008000F14D0108F14D0108F14D0108F14D010854
:10009000F14D0108F14D0108F14D0108531A010815
:1000A0006D060108A505010881060108C9050108BA
:1000B000DD050108F10501080506010805800008B5
:1000C000118000081D80000829800008F14D0108FA
:1000D000F14D0108052401081D24010839240108F7
:1000E0007B1A0108F14D0108F14D0108F14D01089D
:1000F00055060108F14D01086906010800000000DD
:10010000F14D0108F14D010819060108F14D0108F2
:10011000552401086D2401082D0601084106010837
:10012000F14D0108F14D0108F14D0108F14D0108B3
:10013000F14D0108F14D0108F14D0108F14D0108A3
:10014000F14D0108F14D0108F14D0108E1400108B0
:10015000F14D0108F14D010885240108F14D010818
:100160003580000841800008F14D0108F14D01087B
:10017000F14D0108F14D01080000000000000000F1
:10018000F14D0108F14D0108F14D010869800008A9
:100190004D800008F14D0108000000000000000043
:1001A0000000000000000000F14D0108F14D0108C1
:0C01B000F14D0108F14D0108F14D01086E
:1001C00010F8012B11F8013B012A28BF9A42F7D001
:1001D000D01A7047034613F8012B002AFBD1181AD6
:1001E000013870470000000000000000000000001F
:1001F00001F0FF01102A2BDB10F0070F08D010F8D8
:10020000013B013A8B422DD010F0070F42B3F6D1DB
:10021000F0B441EA012141EA014122F007047FF0F4
:1002200000070023F0E80256083C85EA010586EA4B
:10023000010685FA47F5A3FA87F586FA47F6A5FA87
:1002400087F68EB9EED1F0BC01F0FF0102F0070293
:1002500032B110F8013B013A83EA010313B1F8D13E
:100260000020704701387047002D06BF354603381F
:10027000073815F0010F07D1013015F4807F02BF58
:10028000013015F4C03F0130F0BC0138704700BFA9
:1002900081F0004102E000BF83F0004330B54FEA37
:1002A00041044FEA430594EA050F08BF90EA020FA4
:1002B0001FBF54EA000C55EA020C7FEA645C7FEA37
:1002C000655C00F0E2804FEA5454D4EB5555B8BF5A
:1002D0006D420CDD2C4480EA020281EA030382EACB
:1002E000000083EA010180EA020281EA0303362D5D
:1002F00088BF30BD11F0004F4FEA01314FF4801C30
:100300004CEA113102D0404261EB410113F0004F41
:100310004FEA03334CEA133302D0524263EB4303F8
:1003200094EA050F00F0A780A4F10104D5F1200E96
:100330000DDB02FA0EFC22FA05F2801841F10001F1
:1003400003FA0EF2801843FA05F359410EE0A5F1C5
:1003500020050EF1200E012A03FA0EFC28BF4CF0F6
:10036000020C43FA05F3C01851EBE37101F00045AC
:1003700007D54FF0000EDCF1000C7EEB00006EEBB9
:100380000101B1F5801F1BD3B1F5001F0CD3490843
:100390005FEA30004FEA3C0C04F101044FEA44529A
:1003A00012F5800F80F09A80BCF1004F08BF5FEA21
:1003B000500C50F1000041EB045141EA050130BD01
:1003C0005FEA4C0C404141EB0101013C28BFB1F513
:1003D000801FE9D291F0000F04BF01460020B1FA5E
:1003E00081F308BF2033A3F10B03B3F120020CDA31
:1003F0000C3208DD02F1140CC2F10C0201FA0CF00F
:1004000021FA02F10CE002F11402D8BFC2F1200C73
:1004100001FA02F120FA0CFCDCBF41EA0C01904029
:10042000E41AA2BF01EB0451294330BD6FEA040472
:100430001F3C1CDA0C340EDC04F11404C4F120025D
:1004400020FA04F001FA02F340EA030021FA04F36F
:1004500045EA030130BDC4F10C04C4F1200220FAC6
:1004600002F001FA04F340EA0300294630BD21FA04
:1004700004F0294630BD94F0000F83F4801306BFCA
:1004800081F480110134013D4EE77FEA645C18BFBE
:100490007FEA655C29D094EA050F08BF90EA020F55
:1004A00005D054EA000C04BF1946104630BD91EA4D
:1004B000030F1EBF0021002030BD5FEA545C05D150
:1004C0004000494128BF41F0004130BD14F580048F
:1004D0003CBF01F5801130BD01F0004545F0FE4103
:1004E00041F470014FF0000030BD7FEA645C1ABF38
:1004F000194610467FEA655C1CBF0B46024650EA6F
:10050000013406BF52EA033591EA030F41F400219A
:1005100030BD00BF90F0000F04BF0021704730B520
:100520004FF4806404F132044FF000054FF00001F5
:1005300050E700BF90F0000F04BF0021704730B5B6
:100540004FF4806404F1320410F0004548BF40428B
:100550004FF000013EE700BF42004FEAE2014FEAE0
:1005600031014FEA02701FBF12F07F4393F07F4FBB
:1005700081F06051704732F07F4208BF704793F0BE
:100580007F4F04BF41F40021704730B54FF46074D1
:1005900001F0004521F000411CE700BF50EA0102D4
:1005A00008BF704730B54FF000050AE050EA01027D
:1005B00008BF704730B511F0004502D5404261EBED
:1005C00041014FF4806404F132045FEA915C3FF42E
:1005D000D8AE4FF003025FEADC0C18BF03325FEACB
:1005E000DC0C18BF033202EBDC02C2F1200300FA7C
:1005F00003FC20FA02F001FA03FE40EA0E0021FAA1
:1006000002F11444BDE600BF70B54FF0FF0C4CF48E
:10061000E06C1CEA11541DBF1CEA135594EA0C0F40
:1006200095EA0C0F00F0DEF82C4481EA030621EA7B
:100630004C5123EA4C5350EA013518BF52EA0335B6
:1006400041F4801143F4801338D0A0FB02CE4FF068
:100650000005E1FB02E506F00042E0FB03E54FF098
:100660000006E1FB03569CF0000F18BF4EF0010E90
:10067000A4F1FF04B6F5007F64F5407404D25FEA8C
:100680004E0E6D4146EB060642EAC62141EA55513F
:100690004FEAC52040EA5E504FEACE2EB4F1FD0C81
:1006A00088BFBCF5E06F1ED8BEF1004F08BF5FEAFF
:1006B000500E50F1000041EB045170BD06F00046B1
:1006C00046EA010140EA020081EA0301B4EB5C045E
:1006D000C2BFD4EB0C0541EA045170BD41F4801156
:1006E0004FF0000E013C00F3AB8014F1360FDEBF7B
:1006F000002001F0004170BDC4F10004203C35DA57
:100700000C341BDC04F11404C4F1200500FA05F3D9
:1007100020FA04F001FA05F240EA020001F000427A
:1007200021F0004110EBD37021FA04F642EB0601F0
:100730005EEA430E08BF20EAD37070BDC4F10C041A
:10074000C4F1200500FA04F320FA05F001FA04F2DE
:1007500040EA020001F0004110EBD37041F10001CA
:100760005EEA430E08BF20EAD37070BDC4F12005D5
:1007700000FA05F24EEA020E20FA04F301FA05F23D
:1007800043EA020321FA04F001F0004121FA04F2E5
:1007900020EA020000EBD3705EEA430E08BF20EAB5
:1007A000D37070BD94F0000F0FD101F000464000EF
:1007B00041EB010111F4801F08BF013CF7D041EA71
:1007C000060195F0000F18BF704703F00046520075
:1007D00043EB030313F4801F08BF013DF7D043EA46
:1007E0000603704794EA0C0F0CEA135518BF95EAFC
:1007F0000C0F0CD050EA410618BF52EA4306D1D183
:1008000081EA030101F000414FF0000070BD50EAA1
:10081000410606BF1046194652EA430619D094EA2B
:100820000C0F02D150EA013613D195EA0C0F05D115
:1008300052EA03361CBF104619460AD181EA030169
:1008400001F0004141F0FE4141F470014FF0000021
:1008500070BD41F0FE4141F4780170BD70B54FF0BC
:10086000FF0C4CF4E06C1CEA11541DBF1CEA13553C
:1008700094EA0C0F95EA0C0F00F0A7F8A4EB05041E
:1008800081EA030E52EA03354FEA013100F0888015
:100890004FEA03334FF0805545EA131343EA1263DE
:1008A0004FEA022245EA111545EA10654FEA002693
:1008B0000EF000419D4208BF964244F1FD0404F54C
:1008C000407402D25B084FEA3202B61A65EB0305A8
:1008D0005B084FEA32024FF480104FF4002CB6EB65
:1008E000020E75EB030E22BFB61A754640EA0C00E5
:1008F0005B084FEA3202B6EB020E75EB030E22BF25
:10090000B61A754640EA5C005B084FEA3202B6EB65
:10091000020E75EB030E22BFB61A754640EA9C0024
:100920005B084FEA3202B6EB020E75EB030E22BFF4
:10093000B61A754640EADC0055EA060E18D04FEAB2
:10094000051545EA16754FEA06164FEAC30343EA52
:1009500052734FEAC2025FEA1C1CC0D111F4801F1F
:100960000BD141EA00014FF000004FF0004CB6E718
:1009700011F4801F04BF01430020B4F1FD0C88BFB7
:10098000BCF5E06F3FF6AFAEB5EB030C04BFB6EBC2
:10099000020C5FEA500C50F1000041EB045170BDB5
:1009A0000EF0004E4EEA113114EB5C04C2BFD4EBE2
:1009B0000C0541EA045170BD41F480114FF0000E66
:1009C000013C90E645EA060E8DE60CEA135594EAE2
:1009D0000C0F08BF95EA0C0F3FF43BAF94EA0C0FE5
:1009E0000AD150EA01347FF434AF95EA0C0F7FF45A
:1009F00025AF104619462CE795EA0C0F06D152EAAE
:100A000003353FF4FDAE1046194622E750EA410691
:100A100018BF52EA43067FF4C5AE50EA41047FF4A2
:100A20000DAF52EA43057FF4EBAE12E74A0011D254
:100A300012F5001211D20DD56FF47873B3EB625238
:100A40000ED44FEAC12343F0004343EA505323FA44
:100A500002F070474FF00000704750EA013002D1B9
:100A60004FF0FF3070474FF00000704753B94AB95C
:100A7000002908BF00281CBF4FF0FF314FF0FF30A6
:100A800000F00CB8ADF1080C6DE904CE15F0D6F904
:100A9000DDF804E0DDE9022304B07047704700BFD1
:100AA00010B5054C237833B9044B13B10448AFF3A8
:100AB00000800123237010BDA00200200000000070
:100AC0003C61010808B5034B1BB103490348AFF370
:100AD000008008BD00000000A40200203C61010865
:100AE00000224FF44811C0E922214FF4FA71C0E905
:100AF000241200F14001C0F884107D21C0F8982034
:100B0000C0F88000C0F8A420C0F8A810A0F89A206F
:100B100080F89C20A0F89E2080F8A020704710B597
:100B200000210446012014F01FFA0121082014F0CE
:100B30001BFA012384F88B3084F88C3010BD80F8C8
:100B40008B10704780F88D10704780F88C107047BC
:100B5000642928BF642180F88E10704770B5044660
:100B60001546C1B1BAB190F88C30A3B190F88D6040
:100B700016B1002380F88D302A46082013F06EFF4E
:100B8000284614F00FFB0021082013F0E3FF16B1F4
:100B9000012384F88D3070BD38B504460325C82282
:100BA0004FF4FA612046FFF7D9FF642014F0FAFAF7
:100BB000C8224FF4FA612046FFF7D0FF4FF4C87007
:100BC00014F0F0FA013DEAD138BD10B5642240F2CC
:100BD000DC510446FFF7C2FF322014F0E3FA20464E
:100BE0006422BDE810404FF4FA61FFF7B7BF08B5C3
:100BF0000021082013F0AEFFBDE8084000210820C6
:100C000014F020B938B5002504460560A0F8C85C8A
:100C100029464422043014F0DAFC4FF44862294695
:100C200004F1480014F0D3FC204638BD00230370C3
:100C30004FF48073A0F840307047000010B590F872
:100C40004010044681F0010180F840100248FFF78F
:100C500079FF94F8400010BDB869062010B590F8EF
:100C6000413083F00103002B044680F8413008BF77
:100C70003221044818BF6421FFF76AFF94F841004D
:100C800010BD00BFB869062010B5C2B0AA238DF808
:100C900004300123ADF806308388ADF80830102900
:100CA0004FF0000301AC0A466170E380237206D165
:100CB00006490DF10D0014F0B3FC04232372214604
:100CC000034803F0CEF942B010BD00BF9C6101089B
:100CD000786806202DE9F041067804460D4606BBEB
:100CE00000F106080F22404604F1160714F098FCA4
:100CF00029461F22384614F093FC1022314628461C
:100D000014F0EAFB3146A0800F4803F0C5F810212B
:100D10002046FFF7B9FF054638B90B48012103F01B
:100D2000BBF800252846BDE8F0810126267014F0A6
:100D300037FA3946E0634246044802F0CDF90448E8
:100D40003146FFF702FFEDE778680620646A062067
:100D5000B8690620F8B510299DF8185004462ED120
:100D60000778828027B11521BDE8F840FFF78CBFD6
:100D70006A1E0E2A00F1060606D82A4625441946A0
:100D8000304614F0A5FCAF7104F116050C491F2282
:100D9000284614F045FC0223237014F001FA324671
:100DA000E0632946074802F0DDF901210648FFF714
:100DB000CCFE0548FFF7F0FE11212046D4E7F8BD30
:100DC000A1610108646A0620B86906207047F8B579
:100DD000044690F8C80C31280D4617460AD94FF43E
:100DE000446204F1880104F1480014F0D7FB31207B
:100DF00084F8C80C04EB80100F22A11D483014F0B9
:100E00000FFC94F8C80C04EB80101F2204F11601AB
:100E1000583014F005FC94F8C86C04EB861686F87C
:100E2000785014F0BDF9F06794F8C83C04EB8312D5
:100E30000021013382F88470C2F88010022D84F8FA
:100E4000C83C02BF94F8C93C013384F8C93CF8BDE2
:100E500038B50378022B044610D11948FFF7C7FEB6
:100E60001848002103F018F812212046FFF70CFF64
:100E7000054630B91348012103F00EF80025284635
:100E800038BD0423237014F08BF90121A0630C48B2
:100E9000FFF755FE01210A48FFF757FE642014F0C2
:100EA00081F92146052301F8163B00231A4606481E
:100EB00002F09AF9012211462046FFF788FFDEE78B
:100EC000B869062078680620646A062038B50546A9
:100ED0000078022801D810B938BD052835D103247F
:100EE00014212846FFF7D0FE322014F05BF9013CB4
:100EF000F6D11748FFF77BFE15482146FFF71FFE86
:100F000013482146FFF721FE2B78052B07D114F05B
:100F100047F9AB6BC41A4FF47A73B4FBF3F4294668
:100F2000072301F8163B0B48224601F063FF2B789C
:100F3000052B04D1012200212846FFF748FF06486F
:100F4000012102F0A9FF0120C6E70020C4E700BF8D
:100F5000B8690620646A06207868062010B5044641
:100F60000C4802F016FE40B12378052B02D0013B5D
:100F7000012B02D82046FFF7A9FF064802F0F0FD3A
:100F800038B12378022B04D12046BDE81040FFF78A
:100F90005FBF10BDDC6A062038B500250223044679
:100FA000C0E9003529462022083014F010FB102239
:100FB000294604F1280014F00AFB4FF48073A4F8CA
:100FC0004030032384F84230012384F850304FF43A
:100FD0002853A4F85430124BA36542F62B23A4F8EF
:100FE0006030104B636642F65623A4F86C300E4B0B
:100FF00023674FF40043A4F87830A4F848500B4B13
:101000006564C4E90E55E56484F85C5084F8685062
:1010100084F87450E36784F88050204638BD00BFE0
:10102000A9610108AE610108AC690108C661010847
:10103000002343704FF48073A0F8403070470000E5
:1010400013B5037A0446B3B101230093162200F1CD
:1010500008030221094801F035FF202294F82830C6
:101060003BB101230093054804F12803022101F05C
:1010700029FF02B010BD1622F0E700BF646A062007
:1010800073B504461E4801F0CFFF94F848302BB1E9
:101090001C4A1B4801230A2101F042FE2046FFF7AB
:1010A000CFFF94F8483043B10823CDE9003314480A
:1010B000154B14223C2101F026FE0E2500260124AA
:1010C000CDE900560E483C233022022102F088F977
:1010D0000E4B0B48009432220A2101F0F3FECDE9B9
:1010E000005607483C233022422102F079F9084B90
:1010F0000348009432224A2101F0E4FE02B070BDA0
:10110000646A0620B1610108046A0108D06301081D
:10111000E1630108F7B50025064628242F4696F816
:101120004200EAB290424FEA8201C4F12A0388BF2A
:101130000122DBB201F16E018CBF01920197009395
:1011400022460648C9B20323013502F049F9023CA0
:10115000042DE4B2E3D103B0F0BD00BF646A062001
:1011600037B590F8402004460E23002A4CD00125C4
:10117000CDE90035354828233022022102F030F92C
:10118000334B324800953222062102F0A9F894F838
:10119000403043B10823CDE900332C482D4B322297
:1011A000202101F0B0FD94F841200E23002A3CD00C
:1011B0000124CDE900342548282330222E2102F0D5
:1011C0000FF93222244B21480094114602F088F88E
:1011D0000823CDE900331D48204B32224C2101F079
:1011E00092FD0A230022CDE9003218487C233422E4
:1011F000022102F0F5F81A4A14480123322103B003
:10120000BDE8304001F08CBDCDE900320F48282305
:101210003022022102F0E4F8012300930B480C4B2A
:101220003222062101F04EFEB1E7CDE90032074837
:10123000282330222E2102F0D3F8012332220093FA
:101240000248054B114601F03DFEC1E7646A0620E5
:10125000A9610108FC690108AE610108F46901088F
:10126000BF6101082DE9F341DFF8408006463224D2
:101270000025042796F849300B482B4408FB03F35C
:10128000B3F1553F94BF01230023CDE900732146FC
:1012900004232322013502F0A3F80C34032DE4B219
:1012A000E8D102B0BDE8F081646A0620ABAAAAAA20
:1012B00013B50446134801F0B7FE134A1148012341
:1012C0000A2101F02DFD2046FFF7BAFE2046FFF768
:1012D000C9FF0E4A0B480123282101F021FD0E23EE
:1012E0000022CDE9003207486C2330220A2102F0A7
:1012F00077F8074A03480123322102B0BDE81040C5
:1013000001F00EBD646A0620D1610108E3610108A5
:10131000C661010807B508463C21B2FBF1F301FBA9
:10132000132200920A21034A14F0E0F803B05DF89A
:1013300004FB00BF9063010810B504468EB0174847
:1013400001F072FE23781548033BDBB2022B96BFF7
:10135000134A144A52F823200A21012301F0E0FC29
:101360002046FFF76DFEE26B7AB101A92046FFF738
:10137000D1FF0D4A01AB1E2106A814F0B7F80748AB
:10138000012306AA2A2101F0CBFC084A03480123C5
:1013900036210EB0BDE8104001F0C2BC646A0620E0
:1013A000E0690108EF610108FB61010805620108BD
:1013B0007FB5C26B03A9FFF7ADFF0823CDE900336A
:1013C0000848094B2022282101F09DFC02230093AC
:1013D000044803AB2022322101F074FD07B05DF810
:1013E00004FB00BF646A0620EC69010837B50446B7
:1013F0000125134801F018FE04F108031048009578
:101400000A22022101F05EFD04F128030C48009538
:101410001322022101F056FD1C220092802300219C
:10142000074801F060FD2046FFF7C2FF2046FFF7A6
:1014300071FE204603B0BDE83040FFF791BE00BF0B
:10144000646A062010B504460F4801F051FC237869
:10145000052B07D8DFE803F0030B0F131313204607
:10146000FFF726FFBDE81040074801F043BC2046C7
:10147000FFF706FEF6E72046FFF7B8FFF2E7204643
:10148000FFF75AFFEEE700BF646A062010B501239C
:101490004370044613F084FE002384F849306060F2
:1014A0002046BDE81040FFF7CDBF38B5437804466D
:1014B000ABB313F075FEE36CC31AB3F5FA7F0546C0
:1014C00018D994F850302278E06483F0010384F84E
:1014D000503094F84930012A03F1010384F849306F
:1014E00002BF94F8483083F0010384F84830204666
:1014F000FFF7A8FF2378022B11D16368EB1AB3F52D
:101500007A7F0CD9A36B6560EB1A4FF47A72204690
:10151000B3FBF2F3E363BDE83840FFF793BF38BD98
:10152000114B70B500260446B14208BF1946154656
:1015300000F8086B1F2214F073F80C4B0F22B54211
:1015400014BF2946194604F1280014F069F8E6632F
:1015500013F026FEA06313F023FE60642046BDE86E
:101560007040FFF793BF00BFA1610108AC6901089B
:1015700090F8402082F0010280F84020FFF762BF1F
:1015800090F8412082F0010280F84120FFF75ABF15
:1015900008B543785BB10378052B08D8DFE803F082
:1015A0001B03091F1F1F412922D0422922D00020DE
:1015B00008BD30290BD006D8232906D02A29F6D118
:1015C000FFF7D6FFF3E74229F1D10320F0E7FFF759
:1015D000D7FF0120ECE74229F7D02329F4E742297D
:1015E0000AD023294FF0FF3118BF0021C8B2DFE72E
:1015F0000420DDE70520DBE7FF20D9E70022028099
:1016000042808280C280704770B500F58056002409
:101610000546C0E900442146C6F8904341F28832AD
:10162000083013F0D4FF05F59C50214620221430D9
:1016300013F0CDFF05F59D5021461022143013F014
:10164000C6FF05F59E502146C6F8C44386F8C84338
:101650002022093013F0BBFF05F59F50642221467C
:10166000093013F0B4FF86F84D4486F84E44C6F8AE
:101670005044284670BD0023038000F5805080F858
:10168000913380F89233704770470000F0B51F46E1
:1016900000F580538DB093F890338B4205460C468D
:1016A000164635D957B10A230121013ACDE9003157
:1016B00021488023D2B2002101F092FE322303FBA5
:1016C000045393F838303BB1012300931A481B4B65
:1016D0003246022101F0F6FB32235C4304F1080399
:1016E00028342B44164A2544282102A897B1012406
:1016F00013F0FCFE1048009402AB32460C2101F0BE
:10170000EFFD0D4800942B463246302101F0E8FDF4
:101710000DB0F0BD012413F0E9FE02AB32460648DD
:1017200000940C2101F0CEFB034800942B46324676
:10173000302101F0C7FBEBE7646A06203B62010839
:101740009D67010810B50A4686B0044601230F487C
:10175000002101F0E5FA04F58054092200920B48BB
:101760008023002101F0BFFB94F89033084A0A213E
:1017700003A813F0BBFE01230093044803AB00222F
:101780006C2101F09FFB06B010BD00BF646A06200B
:10179000A367010813B501240B4B0C4800943622B3
:1017A000002101F08FFB0A4B0848009436223221B9
:1017B00001F088FB074B0548009436225A2101F0BE
:1017C00081FB02B010BD00BF3D620108646A0620C3
:1017D000486201084F620108F7B5054605F58054D7
:1017E0002849FFF7AFFF94F8903394F89223062B23
:1017F00028BF062384F8933394F89133511D9942FE
:1018000003DA053B84F8923301E09A42FAD80C26B9
:10181000002794F8933394F89003F9B28B421DD8C3
:10182000062815D994F89223362312FB03F20123DC
:10183000B2FBF0F201930C324FF4A273B3FBF0F35E
:10184000DBB2009310480223D2B27D2101F0C8FD23
:10185000284603B0BDE8F040FFF79CBF94F89233F0
:101860001944C9B2884207F10107D9D994F89133D4
:101870005A1A53425341284632460A36FFF706FFAA
:10188000F6B2C6E759620108646A062013B501245E
:101890000B4B0C4800943622002101F013FB0A4B3D
:1018A000084800943622372101F00CFB074B05480D
:1018B00000943622692101F005FB02B010BD00BF83
:1018C00062620108646A06206F6201087A62010898
:1018D00073B500F58053054693F8914393F8903320
:1018E000A34231D932235C4304F108060644314651
:1018F000FFF728FF2B1993F838303BB101230093F1
:101900001248134B0F22022101F0DCFA012300934D
:101910000E4833461922022101F0D4FA022104F1C3
:10192000280300912B440948232201F0CBFA3022EE
:10193000064800928023002101F0D5FA284602B023
:10194000BDE87040FFF7A2BF02B070BD646A062018
:101950008362010813B50124134B144800942A2212
:10196000002101F0AFFA124802F02CF9009403466E
:101970002A220E481E2101F0A5FA0E4B0B480094B6
:101980003622002101F09EFA0B4B084800943622C3
:10199000462101F097FA094B044800943622692148
:1019A00001F090FA02B010BD8C620108646A062052
:1019B000DC6A062092620108A3620108AD62010898
:1019C00073B500F58055354B95F8C713344A002997
:1019D00018BF1A46114601260446FFF7B3FE314BE5
:1019E000314800960E22022101F06CFA0A230021F0
:1019F000CDE900312C4860230C221E2101F0F0FCBF
:101A000004F59C531433284800960D22202101F040
:101A100059FA95F8C6336BB995F8C433224803EBED
:101A20004303B34020331422DBB2009219460D2247
:101A300001F059FA01261D4B1B4800961C22022179
:101A400001F040FA0A230022CDE900321648602353
:101A50001A221E2101F0C4FC04F59D5314331248D0
:101A600000961B22202101F02DFA95F8C633B342CF
:101A70000DD195F8C5330C4803EB4303B340203335
:101A80002222DBB2009219461B2201F02CFA2046DA
:101A900002B0BDE87040FFF75DBF00BFB46201084F
:101AA000C4620108D5620108646A0620DA6201088E
:101AB00073B500F58056044696F8912396F8903356
:101AC0009A4226D21449FFF73DFE96F89123134817
:101AD000322505FB024201230832192101F020F9C9
:101AE00096F891330D4805FB034228320123232148
:101AF000012401F015F90A4B084800942A460A21EE
:101B000001F0E0F9074B054800942A46462101F010
:101B1000D9F902B070BD00BFDF620108646A062017
:101B2000EB620108F56201082DE9F3411B49064605
:101B30000024FFF707FE0A23CDE9003418487C2370
:101B40000C22022101F04CFC0123009306F59E5368
:101B5000134809330D22042101F0B4F906F59F570B
:101B600008371A2506F5805898F84D24E3B29A42B2
:101B700001D9052C02D102B0BDE8F08198F891237B
:101B800017F8011FD21A5342534130462A460A35EC
:101B9000FFF77CFD0134EDB2E6E700BF006301080A
:101BA000646A062010B50446114801F0A1F82378B4
:101BB000052B07D8DFE803F0030B0F0F13172046A0
:101BC000FFF70AFEBDE81040094801F093B820462F
:101BD000FFF77EFEF6E72046FFF7F2FEF2E720462B
:101BE000FFF766FFEEE72046FFF79EFFEAE700BF3C
:101BF000646A062000F58053032210B5154983F866
:101C000090230446083013F05BFD134904F12800CB
:101C100013F056FD01232387104904F13A0013F015
:101C20004FFD0F4904F15A0013F04AFD4FF4807341
:101C3000A4F86A300B4904F16C0013F041FD0A4925
:101C400004F18C0013F03CFD4FF40073A4F89C30B9
:101C500010BD00BF0B6301089C61010811630108FE
:101C6000156301081A630108226301082DE9F04F8A
:101C700000F5805391B093F890738046013F0026A1
:101C80000DF13C0BB74242DD45464FF00009A7EB92
:101C9000060A38E005F1080305F13A042146184622
:101CA0000193FEF78DFA00282ADD019B03AA05F1B6
:101CB000380E186859689446ACE803000833734539
:101CC0006246F6D11B88ACF8003005F108022346C5
:101CD00005F16A0153F8040B42F8040B8B42F9D169
:101CE0001B8813800DF10C0C2346624603CA5A452B
:101CF00018605960944603F10803F6D112881A80DF
:101D000009F101093235D145C4DB0136BAE711B01A
:101D1000BDE8F08F10B5012304464370FFF76AFF5A
:101D20002046FFF7A3FF2046BDE81040FFF73ABF6B
:101D300010B400F5805292F890438C4207D982F893
:101D4000911301225DF8044B0270FFF72BBF5DF881
:101D5000044B7047032310B50446037000F59C50F4
:101D600020220021143013F032FC04F59D50102283
:101D70000021143013F02BFC04F580534FF08072D7
:101D8000C3F8C4232046BDE81040FFF70BBF2DE980
:101D9000F04100F58056054696F890338B422DD9D8
:101DA000022303700023A6F8C633322303FB01F499
:101DB00000F59C5886F8C81308F1140804F10801CE
:101DC00001441F22404605F59D5713F029FC1437A6
:101DD00004F1280129440F22384613F021FC404623
:101DE000FEF7F8F986F8C4033846FEF7F3F986F8EB
:101DF000C5032846BDE8F041FFF7D4BEBDE8F08139
:101E0000F0B500F5805494F890338B4214D9322207
:101E100002FB01000131C9B28B4200F132000CD14A
:101E200094F891135A1ED2B2914284F8902303D3AE
:101E300012B1023B84F89133F0BD00F10802A0F129
:101E40002A0500F1380652F8047B45F8047BB242BB
:101E5000F9D112882A80DDE700F5805393F890339A
:101E60008B4208D9322303FB010090F8383083F00D
:101E7000010380F83830704700F5805292F89133B2
:101E800092F890239A4283BF322202FB030028304B
:101E900000207047F0B5164D0E4607460FCD8BB0AB
:101EA0006C460FC40FCD0FC495E80300A6F13203B2
:101EB000072B84E8030019D8303E0AABF6B203EBD7
:101EC000860607F5805156F8283C91F890031C7857
:101ED0002A3F00233225DAB2904207D9013305FBAD
:101EE00003F6BE5DA642F6D381F891230BB0F0BD98
:101EF0005461010838B543780446002B49D0037873
:101F0000042B46D8DFE813F005006300840084004A
:101F10000D0144293DD837290DD82A2950D032291E
:101F20002CD0A1F13203072B01D9302931D1204621
:101F3000FFF7B0FF2AE0A1F138030C2BF1D801A282
:101F400052F823F0971F0008231F0008231F0008E2
:101F5000231F0008231F0008231F0008231F000859
:101F6000231F0008231F000849210008791F0008CB
:101F7000AD1F0008BB1F0008FF2038BD00F58052D0
:101F800092F891332BB1013B82F891332046FFF751
:101F900009FE0020F1E700F5805292F8901392F8C4
:101FA000913301398B42F4DA0133EDE700F58053C8
:101FB00093F89113FFF7BCFEEBE7FFF7CBFEE8E7E2
:101FC00000F5805393F89113FFF746FFE1E72A29C4
:101FD00017D0A1F14103032BDBD84239022900F2CB
:101FE000B380DFE801F00C02090000F5805393F89C
:101FF0009113FFF7CCFECCE704232370C6E7002340
:10200000FBE700F5805393F89113FFF725FFBDE739
:102010002A2925D0A1F14103DAB2092A4DD8092B8A
:102020004BD801A252F823F03D210008FF1F000801
:1020300075200008BB200008BB200008BB2000085A
:10204000BB200008BB2000085920000851200008D0
:102050003E4801F023FD99E73C4801F036FD98E742
:1020600000F5805292F8C633B3FA83F35B0982F825
:10207000C6338BE700F5805292F8C61361B992F827
:10208000C433002B82D0013BDBB282F8C43303445B
:1020900041F29432995479E701297FF477AF92F8AD
:1020A000C533002B3FF472AF013BDBB282F8C5337E
:1020B0000021034441F2B432ECE7A1F13003092BD3
:1020C0003FF667AF214801F00CFD00283FF461AFF7
:1020D00004F5805191F8C6537DB991F8C4231E2AA6
:1020E0003FF654AF531CDBB281F8C433224441F2B3
:1020F0009431234450545D5448E7012D7FF446AF9A
:1021000091F8C5230E2A3FF641AF531CDBB281F88C
:10211000C533224441F2B4312344505400225A546E
:1021200034E7412904D042297FF433AF012364E727
:1021300000F5805393F89113FFF762FE002323709C
:102140002046FFF757FD21E7012016E7DC6A06204D
:1021500038B500250446C0E900552946102208304C
:1021600013F035FA4FF4807323832946E561F52295
:1021700004F1200013F02BFA84F8155184F816515D
:102180002022294604F2171013F021FA84F837515F
:10219000204638BD2DE9F043064689B000F1200500
:1021A0004FF0000896F815215FFA88F39A4202D999
:1021B000B8F1050F02D109B0BDE8F08396F81621F9
:1021C00003EBC30428349A42E4B205F120094FF02E
:1021D000010735D109232948009322468023002195
:1021E000019701F0FDF8254800972B462246022171
:1021F00001F076F8224A4B46122103A813F076F933
:1022000003A8FDF7E7FF00EB400000FA07F1C1F17A
:102210007E011A48009703AB224601F0FE0101F04F
:102220005FF895F830303BB1012300931348154B0C
:102230002246762100F046FE08F101083135B1E76B
:102240002B4622460D480097022100F03BFE4B46EC
:102250000B4A122103A813F049F903A8FDF7BAFFAE
:1022600000EB40004100C1F17E010448009703AB40
:10227000224601F0FE0100F025FED2E7646A062046
:102280009D6701083B62010810B500F21712012397
:1022900005482A2100F044FDBDE81040034A0248E9
:1022A0000123342100F03CBD646A06202B63010841
:1022B00013B501240A4B0B4800943822002100F08A
:1022C00001FE2346084A0748382100F029FD074B44
:1022D000044800943822442100F0F4FD02B010BDFF
:1022E0003E630108646A06206262010848630108CF
:1022F00070B5047E0E2C05460E461CD80830FDF73E
:1023000069FFC3B29C4209D32B190134E4B21E7297
:102310002C762C4400232372012070BD00F10803A9
:102320006FF007012B44491BCA189442ECDA13F8EA
:10233000012D5A70F8E70020EFE7F8B5047E054656
:1023400084B1013CE4B2264600F108073846FDF7A7
:1023500041FF864207D32C7624B92C7085F81541AD
:1023600085F83741F8BDAB1901365A7A1A72F6B2C0
:10237000ECE710B5102204460021083013F027F9CD
:102380000023237684F8153184F81631237084F8FD
:10239000373110BD38B5002380F8153180F816317B
:1023A000037E044613B312490222083013F026F9C3
:1023B0000546D8B90F4904F1200013F081F90E4900
:1023C00004F1400013F07CF9012384F850300B49EC
:1023D00004F1510013F074F9094904F1710013F08C
:1023E0006FF9022384F8815084F8153138BD00BF9D
:1023F000556301080B630108586301081163010864
:102400006363010838B50021044600F2171580F80F
:1024100037112022284613F0DAF8237E63B10749EA
:1024200004F10800FDF7CCFE30B90549284613F049
:1024300047F9012384F8373138BD00BF58630108DC
:102440000B630108F8B510460D461646FDF7C2FEAF
:102450000024C0B223462027E2B2904205EB0301DC
:1024600002D80022EA54F8BD3CB1D20705D4327834
:102470002B2A1EBF0133DBB20F70315DE9545A1CA9
:102480000134D3B2E8E7000010B5037E88B00446FB
:102490000BB300F1080203A9FFF7D4FF0223009356
:1024A0000F4803AB1622052100F00CFD637E83B1BB
:1024B00003A8FDF78FFE00EB400083000533DBB27D
:1024C0007A2B06D82422009205481822194600F0DB
:1024D0000AFD08B010BD034903A813F0F1F8DDE7C9
:1024E000646A0620AC69010813B50446194800F077
:1024F000FFFB184800F098FD174A164801230A21EF
:1025000000F00EFC1222009280230021114800F0FE
:10251000EAFC2046FFF7B8FF262280230D480092F0
:10252000002100F0E0FC94F837315BB12046FFF762
:10253000ABFE2046FFF7BCFE064802B0BDE81040E7
:1025400000F0D8BB94F81531002BF2D02046FFF7ED
:1025500021FEEEE7646A06206E630108437810B539
:10256000044683B112F01CFEE369C31AB3F5FA7F87
:1025700009D9637EE06183F0010363762046BDE8FC
:102580001040FFF7B1BF10BD427838B504460B4686
:1025900042B323292CD0A1F12A02D1B21D2921D87E
:1025A0001D2A1FD8DFE802F0201E1E1E1E1E0F0F60
:1025B0000F0F0F0F0F0F0F0F1E1E1E1E1E1E1E2CA5
:1025C00048294C5B686E1946FFF792FE50B1012313
:1025D00023702046FFF7DEFE2046FFF713FF20465C
:1025E000FFF782FF002038BD037E23B92B21204650
:1025F000FFF77EFEF3E72A21F9E7FFF79EFEE8E703
:1026000090F81531A3B190F816118B4210D93122F0
:1026100000F1080302FB010140310F22184612F0BD
:10262000FFFFFDF7D7FD2076032323700120DAE7B3
:10263000237E002BD6D0F7E700230370FF20D2E7DC
:1026400090F81531012BCDD990F8162122B1013A1D
:10265000D3B284F81631C2E7013BDBB2F9E790F858
:102660001521012ABED990F81631013A934201DAB8
:102670000133F2E70023ECE7037E002BB2D0013BED
:102680000376ACE7057E0830FDF7A4FDC0B28542B5
:10269000A8D201352576A2E70830704710B5044668
:1026A000FFF767FE2046BDE81040FFF71DBF002280
:1026B0000280FFF7F3BF4FF4807310B50380044628
:1026C00012F06EFD60602046FFF7E8FF2046BDE88F
:1026D0001040FFF709BF38B500250446294640F8E9
:1026E000045B202212F073FF2946402204F12400EB
:1026F00012F06DFF2946202204F1640012F067FFFA
:102700004FF4A053A4F8843084F886502022294640
:1027100004F1870012F05BFF4FF00123A4F8B450DE
:10272000C4E92A55C4F8B030C4F8B850204638BDC2
:1027300073B50025012600242B19990707D1CDE98F
:102740000066164801232A46214600F049FE02345D
:10275000E4B2802CF0D10235EDB2402DEBD1012452
:102760002823CDE900340D486E230C22092100F006
:1027700037FE2A230022CDE90032084870230B22BD
:10278000082100F02DFE26230093044801946C23B9
:102790000D220A2100F024FE02B070BD646A0620FA
:1027A00013B5037904468BB10A230022CDE9003228
:1027B00007486E230C22092100F012FE01230D228E
:1027C00000930348231D114600F08AFD02B010BD9E
:1027D000646A062030B593B004462022002102A886
:1027E00012F0F5FE04F12405202200210AA812F0BF
:1027F000EEFE2846FDF7EEFC19281ED919222946BF
:1028000002A812F00DFF192204F13D010AA80124CB
:1028100012F006FF02AB0B4800941A220D2100F0C3
:1028200051FB9DF8283033B1064800940AAB2422AE
:102830000D2100F047FB13B030BD1F22294602A82E
:10284000E5E700BF646A062090F8B13037B5FBB108
:1028500090F8B2300124002B34D090F8B350CDB1B1
:1028600008230022CDE9003228231A461C480D21F6
:1028700000F0B6FD1B4B1A4800942922112100F0EC
:102880002FFD194B164800942922452100F01AFB10
:1028900003B030BD134B124800942922112100F0DF
:1028A00011FB082300932822302341210C48019575
:1028B00000F096FD0C4B009429224521084800F0B9
:1028C0000FFDE5E70823009328231A462C2104482E
:1028D000019400F085FD034B009429223321EDE79C
:1028E000646A06206A650108A56201081FB590F8B0
:1028F0008730044643B101230093222200F187036D
:102900000D21154800F0DEFA06230020CDE9003045
:102910002A22662310480D2100F062FD94F88630CB
:1029200043B104220121CDE900210B482B220E21C5
:1029300000F056FD94F88630084A052102A812F0EE
:10294000D5FD01230093044802AB2A22752100F033
:10295000B9FA04B010BD00BF646A0620AD63010877
:1029600013B50A230022CDE900320446662311483C
:1029700028220D2100F034FD012300930F2104F1E2
:1029800064030C48292200F09DFA94F8B530D90769
:102990000DD494F88430074803EB43035B000F33F6
:1029A0003022DBB200921946292200F09CFA02B0D4
:1029B00010BD00BF646A0620837810B50446C3B119
:1029C000FFF7B6FE2046FFF7EBFE2046FFF702FFBB
:1029D0002378022B09D0032B02D12046FFF786FF74
:1029E0002046BDE81040FFF72FBF2046FFF7B8FF95
:1029F000F6E710BD837810B504468BB112F0D0FB1A
:102A000094F8B0306BB1D4F8A830D4F8AC20C31A25
:102A1000934206D90023032284F8B43062706380A5
:102A200010BD94F8B4309BB1D4F8B830C31AC82B99
:102A30000ED994F8B530C4F8B800013384F8B53035
:102A40000123E3702046FFF7B7FF0023E370E7E7B9
:102A5000E378002BE4D0F5E78078704790F8843075
:102A600090F885209A420AD95A1CD2B2034480F8C1
:102A70008420104483F86410002380F86430704789
:102A800090F884303BB1013BDBB280F884301844CD
:102A9000002380F86430704710B5202204460021DE
:102AA000643012F094FD002384F8843010BD0000DF
:102AB000837810B50446D3B10378062B17D8DFE826
:102AC00003F023042E1616232300412911D00CD81D
:102AD00001F0FD0134290AD190F8B33083F00103ED
:102AE00080F8B3300123E37001E042292DD00020AB
:102AF00010BD90F8B300C0F102000023C0B26070B6
:102B000084F8B4306380F3E741390129EFD800231A
:102B1000012284F8B430627063800120E8E7422922
:102B200011D0432919D04129F1D0A1F13003092B4B
:102B3000DDD80B4800F0D5FF01460028D7D020464D
:102B4000FFF78CFFCEE7FFF7A7FF0023022284F8F0
:102B5000B430627063800220CAE7FFF791FFC1E7DB
:102B6000DC6A06201FB50B4B0B4ACDE901324FF052
:102B7000FF3300934022094B8021044605F0CEFF2D
:102B80000749084B2046C4E91B130023636704B0C0
:102B900010BD00BF801A0600A08601002C6C062024
:102BA0000001FFAB55000C222DE9F041044686B030
:102BB00006F0E9F82046022105F031FE0DF1160875
:102BC00005AF0DF1120604AD00231A462046224936
:102BD000CDF80C8002970196009505F0F1FEBDF846
:102BE00014301D49C3F1800303EBD3735B102382C0
:102BF00005236382204611F0B3FE00231A462046C7
:102C0000CDE90278CDE90056144905F0D9FEBDF8AA
:102C100014301249C3F1800303EBD3735B1023829A
:102C200019236382204611F09BFE2046012105F006
:102C3000F6FD0B4B0B492361204611F091FE204617
:102C400006F03CFC40F2DC5012F0ACFA204606F0F4
:102C50009AF806B0BDE8F081776301087D6301084A
:102C6000270032008263010837B51A4A1623C2F8DA
:102C7000883004461723104600210125C2F884300D
:102C800004F0C2FD00952B463C220221204606F0AE
:102C900089F850B929460B2012F066F90B2012F082
:102CA00041FAC82012F07EFAF8E7204606F06BF8E9
:102CB0002946204605F0B3FD4FF001136361002360
:102CC0002046E37606F0FAFB204603B0BDE830402C
:102CD000FFF76ABF2C6C0620012380F86D30AF210E
:102CE00006F025B8002280F86D20AE2106F01FB84E
:102CF00006F049B810B5044606F0E0FB2046BDE8F2
:102D0000104006F040B81FB5012402949DF81C4005
:102D100001949DF81840009405F04EFB04B010BDDE
:102D200070B50E4686B019460446154605F077FD87
:102D30000DF11603039305AB02930DF112030193FA
:102D400004AB009300231A462946204605F038FEBE
:102D5000BDF814306682C3F1800303EBD3735B10BC
:102D600023822946204611F0FBFD06B070BD00000D
:102D700011F1450F0CDA11F1540F0BDA11F1630F59
:102D80000ADA064B064811F1720FB8BF18467047B1
:102D9000044870470448704704487047846A010833
:102DA0007C6A0108646A01086C6A0108746A010897
:102DB0005AB94B290BD832290BD819290BD8074BF4
:102DC0000748052998BF18467047064870470648C7
:102DD0007047064870470648704700BF3C6A0108C4
:102DE000446A0108346A01085C6A0108546A0108EF
:102DF0004C6A010870B5042388B0044680F86C3032
:102E00000E46154605F0BFFF144A012320460A214D
:102E1000FFF786FF2046012105F001FD32462046DE
:102E200001231921FFF77CFF3C22B5FBF2F302FBE3
:102E3000135500950A4A142103A812F057FB0123E9
:102E400003AA28212046FFF76BFF204606F036FB39
:102E50004FF4FA6012F0A6F908B070BD13620108D1
:102E60008963010830B58BB004460D4605F08BFF31
:102E70000823CDE9003320460F4B0A223C21FFF7FF
:102E800042FF2B460D4A1E2102A812F02FFB02AA78
:102E9000204601231E21FFF743FF094A01232D216C
:102EA0002046FFF73DFF204606F008FB40F6B8300D
:102EB00012F078F90BB030BD3C6A01089C63010840
:102EC000B2630108F8B504460F4616469DF818107F
:102ED0001D4605F0A4FC2782668229462046BDE8EF
:102EE000F84011F03DBD13B5012401949DF8104048
:102EF000009405F0F9F902B010BD0000F0B5082605
:102F000085B0002704460D4680F86F1018233A4616
:102F10003946CDE9006705F075F929462046FFF7E7
:102F200027FF3A46034639462046CDE90066FFF7BB
:102F3000EAFE2046012105F072FC0A224FF001133F
:102F4000C4E904233146064A2B460DEB060012F075
:102F5000CDFA0DEB0601204611F002FD05B0F0BDE3
:102F6000A36701082DE9FF414FF008080027044638
:102F70000D4680F8701080F8712016461E233A46E0
:102F8000CDE90087462105F03DF932462946204625
:102F9000FFF70EFF3A460346CDE90088204646215A
:102FA000FFF7B1FE2046012105F039FC50224FF019
:102FB0000113C4E904230521064A2B460DEB080042
:102FC00012F094FA0DEB0801204611F0C9FC04B090
:102FD000BDE8F081AD6301087FB580F87320164627
:102FE00008230022044680F872100D46CDE9003215
:102FF00064211C2305F006F92046012105F00FFC91
:1030000064224FF00113C4E904230621054A009607
:103010002B4602A812F06AFA02A9204611F0A0FC81
:1030200004B070BDC063010837B50123044608250C
:103030002A46CDE900530021802305F055F994F983
:103040006F102046FFF75AFF94F8712094F8701023
:103050002046FFF787FF94F8732094F872102046FB
:10306000FFF7BAFF94F874303BB1CDE90055164B29
:10307000002212212046FFF746FE94F8753043B136
:103080000823CDE900330022104B1C212046FFF716
:103090003AFE94F8763043B10823CDE9003300229C
:1030A0000B4B26212046FFF72EFE94F8773043B1D4
:1030B0000823CDE900330022064B30212046FFF7DC
:1030C00022FE03B030BD00BF246A01082C6A01084B
:1030D000146A01081C6A0108F8B50227044680F842
:1030E0006C700E46154605F04EFE2046FFF79CFF1D
:1030F000174A012320460F21FFF712FE39462046CA
:1031000005F08DFB3B46324620461C21FFF708FEAA
:103110002046012105F083FB2A46012320462A216F
:10312000FFF7FEFD2046012105F079FB094B2361E5
:103130000949204611F014FC084B23612046084938
:1031400011F00EFC2046BDE8F84006F0B7B900BF0C
:10315000D16101080A003200E36101086E00380005
:10316000C6610108032370B5044680F86C300E4632
:10317000154605F008FE2046FFF756FF154A0123C5
:1031800020460A21FFF7CCFD2046022105F047FB2F
:103190003246022320461921FFF7C2FD20460121B5
:1031A00005F03DFB2A46204601232821FFF7B8FD04
:1031B000094B23610949204611F0D2FB084B2361DA
:1031C0002046084911F0CCFB2046BDE8704006F0CF
:1031D00075B900BFB161010805003400CA63010878
:1031E00050003400DA6301082DE9F0414FF0020885
:1031F00086B0044680F86C8015460E461F4605F0E2
:10320000C2FD2046FFF710FF0121204605F007FB15
:10321000204A01230C212046FFF782FD414620462B
:1032200005F0FDFA3246434616212046FFF778FDA9
:103230003C260121204605F0F2FAB5FBF6F306FB29
:103240001355154A00950A2103A812F04FF90123DE
:1032500003AA26212046FFF763FD77B10823CDE9B5
:10326000003331460D4B20462D22FFF74CFD0C4B11
:103270000C492361204611F073FB0B4B0B49236172
:10328000204611F06DFB204606F018F906B0BDE8A7
:10329000F08100BFE9630108906301080C6A01082E
:1032A00046002D00A961010805003700BF61010833
:1032B00007B508230A4680F8751049B1CDE90033F7
:1032C0000022064B1C21FFF71EFD03B05DF804FB36
:1032D000CDE900311C2104F095FFF6E72C6A0108C6
:1032E000F0B587B00E469DF8301004461F461546CF
:1032F00005F095FA0DF11603039305AB02930DF15A
:10330000120336B22DB2019304AB009332462B4622
:103310003946204605F054FB01230193BDF91630D0
:1033200000932A46BDF914303146204604F06AFF66
:1033300000236361268265823946204611F010FB26
:103340004FF00113636107B0F0BD00002DE9F743B2
:103350000446884617460A250A260FFA85F931B22F
:10336000023601234A462046B6B205F075FB762E9A
:10337000F5D10235ADB2362DEED12C260A2200232E
:10338000CDE90063114620466C2304F03BFF012584
:103390000A2211466C232046CDE9006504F063FF44
:1033A0002946204605F03BFA2B46424620460E2190
:1033B000FFF7B6FC2B463A4620461E21FFF7B0FC2D
:1033C000054B06492361204611F0CAFA204603B096
:1033D000BDE8F04306F072B8320030006A650108BB
:1033E00070B49DF810609DF80C400125CDE90345AF
:1033F00016B170BC04F006BF70BC04F034BF00000E
:10340000002310B5C0E900330A4B836004460A4923
:103410000C3012F055F946F288424FF0A053C4E93F
:103420000423064BA36145F62643A3832623A377F3
:10343000204610BD0000010147690108262C2644E2
:1034400000230380704700001FB5437A0093037A7E
:10345000064A062102A812F049F80548032302AAE9
:103460000C21FFF75DFC05B05DF804FBC0630108AB
:10347000646A0620437A0133DBB23B2B01D84372E6
:103480007047037A0133DBB2172B8CBF837A037248
:103490004FF0000288BF0133427284BF0272837210
:1034A0007047000073B500EB41001E46C57D047EE9
:1034B0000F4810232946CDE9003313462246FFF773
:1034C00022FC3046FCF786FE04F1120200EB4004B9
:1034D0006400E4B2C4F1100405EB6401012300931D
:1034E00003483346D2B2C9B2FFF7ECFC02B070BD5C
:1034F000646A062007B5037800EB43001E23027EB2
:10350000C17D023A00200239CDE90030D2B2044830
:103510001423C9B2FFF764FF03B05DF804FB00BFDA
:10352000646A0620F0B5104C074694E80F0089B095
:1035300010348DE80F0094E80F0004AE86E80F0009
:103540006D460024E1B256F8043B55F8042B38468A
:103550000134FFF7A7FF042CF4D1384609B0BDE8C9
:10356000F040FFF7C7BF00BF7C610108F0B51E4601
:1035700085B001270823CDE900370C480C461546D5
:10358000FFF72EFF092E3346094A28BF09230321DE
:1035900003A811F0ABFFE1190448009703AB2A46DA
:1035A000C9B2FFF79DFE05B0F0BD00BF646A0620FA
:1035B000A367010810B5C37C04463BB1827E417EFF
:1035C000023A0C31D2B2C9B2FFF7D0FF237D53B11A
:1035D000227EE17D023A0C312046D2B2BDE8104095
:1035E000C9B2FFF7C3BF10BD0139CBB20B2B9ABFD5
:1035F000024B53F821000248704700BF8C6A010853
:10360000FA63010800B589B0C17A0246FFF7ECFF02
:103610000190937A0093142102F10C0303A8064A47
:1036200011F064FF0548012303AA1E21FFF778FB70
:1036300009B05DF804FB00BFFE630108646A062060
:1036400013B504461548FFF753FB94F910101348BF
:10365000FFF754FCA27C617C1048FFF783FC627A80
:10366000217A0E48FFF7B8FC2046FFF7EDFE204612
:10367000FFF7C8FF24220092802300210748FFF7AC
:1036800032FC2046FFF74EFF2046FFF793FF03482A
:1036900002B0BDE81040FFF72DBB00BF646A0620F2
:1036A00010B501234370044611F07AFD6060204696
:1036B000BDE81040FFF7C4BF38B5437804466BB18E
:1036C00011F06EFD6368C31AB3F5FA7F054605D99C
:1036D0002046FFF7CFFEFFF7B3FF656038BD0278E5
:1036E0001AB1013A0270FFF7ABBF70470278022AA5
:1036F00003D801320270FFF7A3BF704708B54378C3
:10370000C3B123391F2915D8DFE801F01F141414A1
:103710001414141D14141414141010121012191669
:10372000101610141414141414141921642008BD54
:10373000FFF7D5FF0020FAE7FFF7D8FFFAE7007898
:103740000130C0B2F3E7C920F1E7CA20EFE7C82093
:10375000EDE7000070B5A1220446002111F037FF0B
:10376000A02300250126A4F8A2304FF04863C4F836
:10377000A430104984F8A15084F8A860C4F8AC5073
:10378000A4F8B060C4F8B45084F8B850C4F8B95084
:1037900004F1B90011F094FF40F20113A4F8BE3017
:1037A0001423A4F8C05084F8C23084F8BD602046C9
:1037B00070BD00BF6864010810B5A1220446002155
:1037C00011F005FF002384F8A13084F8A33084F8B9
:1037D000C13084F8B8300123A4F8B03010BD10B562
:1037E0000446FFF7E9FF002384F8A33084F8C130D2
:1037F000012384F8B03010BD2DE9F0411D4614239B
:103800005943DDE906870646741872501046C4E92C
:103810000158E760FCF7DEFC20742846FCF7DAFC70
:1038200060744046FCF7D6FCA0743846FCF7D2FC26
:10383000E074BDE8F081000013B5344B0021C0E90D
:1038400032110193324B0093324B1A460446FFF774
:10385000D3FF314B0193314B0093314B20461A4635
:103860000121FFF7C9FF2F4B01932F4B00932046F7
:103870002E4B2F4A0221FFF7BFFF2E4B01932E4BF9
:10388000009320462D4B2E4A0321FFF7B5FF2D4B09
:1038900001932D4B009320462C4B2D4A0421FFF71A
:1038A000ABFF2C4B01932C4B009320462B4B2C4A07
:1038B0000521FFF7A1FF2B4B01932B4B00932046D3
:1038C0002A4B2B4A0621FFF797FF2A4B01932A4BDD
:1038D00000932046294B2A4A0721FFF78DFF294BE9
:1038E0000193294B00932046284B294A0821FFF7D2
:1038F00083FF284B0193284B00932046274B284AEF
:103900000921FFF779FF204602B010BD706401085D
:10391000876301086C6401087A64010888660108FD
:103920007564010883640108926601087F640108D8
:10393000686401088A64010825630108CB690108ED
:10394000DC69010899640108616301089164010858
:1039500095640108A8640108AF640108A064010827
:10396000A4640108B964010856630108B164010840
:10397000B5640108CA640108D1640108C064010883
:10398000C5640108DB6401086C630108D3640108A5
:10399000D7640108EC640108F3640108E2640108DB
:1039A000E764010808B50221182011F0DDFABDE82E
:1039B00008400221192011F0D7BA000010B50A48BA
:1039C00005F0ACFF044668B1074805F0DAFE0128AF
:1039D00003D10A2011F0E6FBF6E7034805F0D1FE1B
:1039E0000228F6D0204610BDBC020020A1F1300311
:1039F000DBB2092B30B50446084614D894F8CE1033
:103A0000012903D0B1B994F8CF1069B1142101FB99
:103A1000034359685B7C31B12BB1B2FBF3F003FB7C
:103A20001022D2B2885C30BD14214B43E518E15816
:103A30002B7CF0E7022905D1142101FB034399688F
:103A40009B7CE8E70329EED1142101FB0344E168E4
:103A5000E37CE0E710B590F8CC10044649B190F84B
:103A6000CD20FFF7C3FF00230146C4F8C830A4F8F7
:103A7000CC30084610BD10B590F8CC30044663B188
:103A800011F08EFBD4F8C830C01AB0F5487F04D3CB
:103A90002046BDE81040FFF7DDBF10BD90F8CE30E6
:103AA000012B0ED0022B0ED0B3FA83F35B0980F802
:103AB000CE30002380F8CF30C0F8C830A0F8CC302A
:103AC00070470223F3E70323F1E790F8CF3083F048
:103AD000010380F8CF300023C0F8C830A0F8CC3004
:103AE000704738B50D46044611F05AFB4A2D05D1F2
:103AF0002046FFF7D3FF0025284638BD492D09D1C0
:103B00002046FFF7E2FF94F8CF30002B14BF5E256C
:103B10007625F1E7A5F13002092A94F8CC3019D8BE
:103B2000AB4215D1D4F8C830C31AB3F5487F0FD2D1
:103B300094F8CD200132D2B284F8CD2084F8CC5054
:103B4000C4F8C80029462046BDE83840FFF74EBFFC
:103B50000022F1E7002BCFD02046FFF77BFFCBE719
:103B600008B5182011F0A2FA08B1002008BD1420F1
:103B700011F018FB182011F099FA0028F5D118203F
:103B800011F094FA08B10120F0E70A2011F00AFBC5
:103B9000F5E708B5192011F089FA08B1002008BD31
:103BA000142011F0FFFA192011F080FA0028F5D145
:103BB000192011F07BFA08B10120F0E70A2011F07A
:103BC000F1FAF5E790F8CE30032B9ABF024A52F88B
:103BD00023000248704700BF3C6B0108FA630108EC
:103BE00007B506230422CDE900320449044B054AF7
:103BF000054805F025FD03B05DF804FB4C6B01089A
:103C0000646B0108686B0108BC02002038B50546EA
:103C10000C460420002111F011FA45F08001002229
:103C2000064803F0E6F921460448002203F0E1F9D2
:103C3000BDE838400121042011F000BAAC6B062029
:103C400010B50D4B43600D4A0D4B836004460021B7
:103C50000823C0E90323C0E9441101604FF46173F4
:103C60006420C4E94D03C4F83C111C2204F58C7097
:103C700011F0ADFC204610BD0000594407051100AD
:103C800000007A4308B50121042011F06DF90121EB
:103C9000042011F0D3F90121022011F065F901216E
:103CA000022011F0CBF90021BDE80840084611F0D0
:103CB0005BB908B50021022011F0C0F90A2011F00B
:103CC00071FA0220012111F0B9F9BDE808400A207B
:103CD00011F068BA10B504200C46002111F0AEF9BD
:103CE00004F07F010022074803F083F90022114607
:103CF000044803F07EF901210446042011F09EF9E6
:103D0000204610BDAC6B062070B504200E46002185
:103D100014461D4611F092F90B48002206F07F016F
:103D200003F067F92544AC4205D1BDE8704001219C
:103D3000042011F083B900220348114603F059F919
:103D400004F8010BEFE700BFAC6B062070B5042050
:103D50000E46002114461D4611F070F90A48002253
:103D600046F0800103F045F92544AC4205D1BDE899
:103D700070400121042011F061B914F8011B0248C0
:103D8000002203F036F9F0E7AC6B062038B50529C0
:103D900098BF064B05460C464FF0010094BF595C96
:103DA0008121FFF733FF2C7038BD00BF6E6B010817
:103DB00010EE103A10B580ED010A184612F01EF808
:103DC000C404C0F387010620FFF720FF610B01F058
:103DD000C0010720FFF71AFFBDE8104000210820AE
:103DE000FFF714BFD0ED027A9FED1E7AF4EEC77A8A
:103DF000F1EE10FA10B5044627D99FED1B7AF4EEC8
:103E0000C77AF1EE10FA94BF80219021637B072BD3
:103E10001DD0082B1ED0062B1FD141F004011D2000
:103E2000FFF7F4FEA17C237B890041EA031101F036
:103E3000FC011E20FFF7EAFE237B092B10D9BDE809
:103E4000104008211F20FFF7E1BE0021DEE741F00E
:103E50000601E4E741F00801E1E741F00201DEE795
:103E600010BD00BF0000FA4200007A43022908B5E5
:103E70008173B8BF02211429A8BF1421023961F04F
:103E80007F01C9B20920FFF7C1FEBDE808403F210C
:103E90000B20FFF7BBBE000038B5044641700D464D
:103EA0000021FFF773FF1C4B63604DBB1B4BA360EE
:103EB00040F20753A3811123A37308232382A5741F
:103EC00004212620FFF7A2FE94ED010A2046FFF709
:103ED0006FFF2046FFF786FF94F90E102046FFF78C
:103EE000C5FF218A2020090AFFF790FE217C2120AE
:103EF000FFF78CFE20460121BDE83840FFF746BFA2
:103F0000074BA36040F60903A3811123A3730C217F
:103F100001232182A374D4E70000594400007A43AE
:103F20000000FA4273B50446FFF7ACFE1C4A0723B3
:103F3000D3660623936610460523002113670125E7
:103F400003F01EF80026174B0093ADF8045002ABA7
:103F50008DF8066013E90600114803F027F82046A3
:103F6000FFF7A7FE42212046FFF7B4FE12280CD02F
:103F70000B2011F09BF8B0FA80F149090B2011F0E9
:103F80005DF8642011F00EF9F2E731462046FFF7A4
:103F900083FF2946204602B0BDE87040FFF7F6BE19
:103FA000AC6B062080969800531EFF2B2DE9F04144
:103FB00004460F46164631D8C5787DBB01215FFA0D
:103FC00086F8FFF7E3FE41462220FFF71FFE294651
:103FD0000E20FFF71BFE29460D20FFF717FE434674
:103FE0003A4629462046FFF7B1FEFF211220FFF78F
:103FF0000DFE02212046FFF7C9FE0123E37011F0F8
:10400000CFF800F59C55083511F0CAF8A84207D33F
:104010000023E37001212046FFF7B8FE00201AE0DC
:1040200012212046FFF756FE030716D5D4F81831A3
:104030000133C4F81831D4F82C313344C4F82C318E
:104040000023E37008211220FFF7E0FD2046012144
:10405000FFF79CFE0120BDE8F081012011F0A2F8DD
:10406000D2E770B50546C0B021B30B88ADF800307B
:104070004B880A7A5BBAD61DADF802308B88B6F54C
:10408000807F88BFF9225BBA84BF0A724FF48076C2
:104090006C46ADF804308DF8062022B109310DF1DF
:1040A000070011F015FB324621462846FFF77CFF3A
:1040B00040B070BD0846FBE710B5FF210446122052
:1040C000FFF7A4FD00210F20FFF7A0FD00210D2028
:1040D000FFF79CFD20460321BDE81040FFF756BEC8
:1040E0008078704738B512210446FFF7F3FD41068A
:1040F00005460ED5820616D5D4F824310133C4F80E
:10410000243120211220FFF781FD40211220FFF7EA
:104110007DFD2B070AD50023E3700821BDE8384058
:104120001220FFF773BD0123A370EEE738BD000036
:1041300010B51A210446FFF7CDFD94ED017ADFEDAD
:10414000067AB4EEE77AF1EE10FACCBF9D38A438C7
:1041500080B200B210BD00BF0000484408B519216C
:10416000FFF7B8FD40B20028B8BF0330801008BD8B
:104170002DE9F04190F80280C0B004460D46B8F138
:10418000000F0DD061B11321FFF7A4FD06280746EB
:104190000CD80023A370D4F824310133C4F824319F
:1041A0004FF00008404640B0BDE8F08110212046A5
:1041B000FFF790FD01460D20FFF728FD3B466A46BC
:1041C00000212046FFF7A0FDBDF800302B80BDF890
:1041D00002309DF800105BBA6B80BDF804305ABA0B
:1041E000AA80AA299DF806202A72D2D1B3F5807F31
:1041F00006D04FF6FF718B4202D00023A370CFE7A9
:10420000531EDBB2F92B05D80DF1070105F10900AA
:1042100011F05EFA2046FFF78BFFA4F82801204634
:10422000FFF79CFFD4F81C3184F82A010133C4F84D
:104230001C31D4F83031B4F814213B44C4F8303187
:10424000EB88934284BFD4F820119A1A03F101033A
:1042500088BF8918A4F814314FF0000388BFC4F850
:104260002011A37040211220FFF7D0FC9AE7000034
:1042700010B50B4B4FF0A0620446C0E97823002133
:10428000202200F5F47011F0A2F9064BC4F80832B0
:104290004FF4F0720021204611F099F9204610BD2C
:1042A000000A802C0101000110B54FF4F0720446A1
:1042B000002111F08CF90023A4F8E03184F8E231F8
:1042C000012384F80B3210BD10B50446FFF7ECFF54
:1042D000002384F8E13184F8E231012384F80B32C1
:1042E00010BD00000146002201F8042B42604A6024
:1042F0008A60642181710749026147F2305CC0E93C
:1043000006C105490162C0E90922C0E90B22027514
:1043100042637047E093040080EE360008B5002049
:1043200010F07AFD40F6E443584340F2FF33B0FB0F
:10433000F3F080B2400080B208BD41F267039942B9
:104340000DD840F6B83399420BD9642303FB01F032
:104350004FF49663B0FBF3F0FA38C0B270476420B4
:10436000704700207047142906D80A2906D8052965
:104370008CBF022003207047002070470120704747
:1043800010B50446FFF7CAFF0146A0802046FFF79C
:10439000D4FF0146A0712046FFF7E5FFE07110F061
:1043A000FFFEE0600848A2880188028041F2040311
:1043B0009A4201F1320194BF002301238A42C8BF0F
:1043C00043F00103237210BD94030020037823B946
:1043D000012303700148FEF785BC7047646A06201C
:1043E00008B50021082010F0BFFD00210B2010F0BF
:1043F000BBFD0021082010F0ADFBBDE80840002106
:104400002F2010F0A7BB00000378033B012B10B551
:10441000044609D9022303700448FEF763FC2046D2
:10442000BDE81040FFF7DCBF10BD00BF646A062086
:104430000378042B10B504460DD0032303700648FF
:10444000FEF750FC2046FFF7CBFFBDE810404FF4CD
:104450007A7010F0A7BE10BD646A062010B50F4A2E
:104460000F4904460F48FEF771FF4FF47A7010F0C1
:1044700099FE0C48FEF736FC2046FFF7B1FF0423F7
:104480002370002420460021013410F06DFD302CF3
:10449000F8D14FF47A7010F085FEFAE7FD64010858
:1044A0000E650108646A062008B50121082010F095
:1044B0005BFDBDE8084001210B2010F055BD000058
:1044C0000378023B012B10B5044601D8FFF7ECFF3F
:1044D0000023237010F064FE2061BDE81040014805
:1044E000FEF7FABB646A062010B5044610F058FEC9
:1044F00023782061013B022B04D82046BDE8104000
:10450000FFF7DEBF10BD80797047007A7047C3792E
:10451000032B06D18379022B03D8007A80F00100A7
:10452000704700207047000008B5064A0649044657
:104530000648FEF70BFF4FF4FA6010F033FE2046FA
:10454000FFF78CFF196501082B650108646A0620D6
:1045500010B504210446002010F006FD2046FFF7A8
:104560000FFF10F01DFE206110F01AFE6063204660
:10457000FFF7CDFF10B12046FFF7D6FF10BD0000BA
:10458000F8B5044610F00CFE4FF47A72B0FBF2F36B
:104590006362636B2669C31AB3FBF2F32278022AC3
:1045A0000546A0EB060618D013D9032A19D0254FCB
:1045B00065633B6847F23052EB1A934215D92046A7
:1045C000FFF7DEFEE3793D60032B0ED12046FFF7B7
:1045D000ABFFA26A1A44A262E9E7E26A1A44E26205
:1045E000E5E7226B1A442263E1E72378012B1AD016
:1045F000022B1FD02BB9A369B34202D22046FFF78A
:10460000E5FEE379012B0DD1A1790F290AD80E4CD3
:1046100023684EF66022EB1A934203D90B48FEF74B
:1046200021FC2560F8BDE369B342EAD22046FFF7DA
:10463000EBFEE6E7236AB342E3D22046FFF7F8FE3B
:10464000DFE700BF9C03002098030020646A062077
:1046500038B500250446294680F8505580F8AC57F7
:1046600080F8285DC0F82C5DC0F8305D4FF4AA6278
:1046700010F0ADFF29464FF4167204F2545010F0BA
:10468000A6FF4FF4AF62294604F5F66010F09FFFD5
:10469000204638BD00B5114B11491A681B79C3B0CB
:1046A0000DF11200CDF80D2020228DF8113010F000
:1046B000B7FF01230B4A8DF81F3011238DF82030EE
:1046C0004FF6FF73CDE9012301A9142306488DF8A5
:1046D0000C30FFF7C6FC43B05DF804FB9C61010899
:1046E00031650108AA5001007868062010B504461B
:1046F000FFF7D0FF10F054FDC4F82C0D10BD0000E2
:1047000000B5C3B001AB084A0192ADF80810002211
:1047100019460648ADF80A208DF80C20FFF7A1FCD9
:1047200043B05DF804FB00BFAA4101007868062091
:104730002DE9F84F054610F033FD95F850454FF040
:104740004409661E824609FB0454731C01D1BDE86E
:10475000F88F54F80C3C134AAAEB0303934213D985
:1047600014F8122C012A04BF022204F8122C0E4A5B
:10477000934209D995F85075B046013FA5F1440B15
:10478000474504DC85F85075013E443CDDE708F1FF
:10479000010809FB08F029184422584410F098FF3A
:1047A000EEE700BFA7D8010027820500F0B590F81A
:1047B00050550023A0F144064422DCB2A54201D8A2
:1047C000002007E003FB02275C1CF75B8F4202D14D
:1047D00002FB0300F0BD2346EFE72DE9F047054655
:1047E00090461F46FFF7E2FF9DF920908A46044657
:1047F00050B180F8339010F0D3FC0123A06384F80B
:1048000032302046BDE8F08795F85065132E06D962
:104810002846FFF78DFF95F85065132EF1D84423F5
:104820005E43B01C0F22414625F806A0284410F034
:10483000F7FE06F11200AC191F223946284410F089
:10484000EFFE012384F832304FF48073636384F801
:10485000339010F0A5FCA06310F0A2FC0023E063ED
:1048600084F8403095F85035013385F85035C8E765
:1048700070B516461D46FFF799FF044658B180F8FB
:10488000336080F8355010F08BFC94F83230A06320
:10489000012B01D1012070BD012384F83230F9E7EA
:1048A00070B50446002510F07BFC234604F5AF618B
:1048B0004FF47A74B3F8C02752B1D3F8C42793F8F1
:1048C000C867821AB2FBF4F2B24288BFA3F8C0579D
:1048D0001C338B42EED170BD38B5044610F060FC3D
:1048E000D4F82C3D47F61712C31A9342054604D953
:1048F0002046FFF7CFFEC4F82C5DD4F8303D4EF6CD
:104900004762EB1A934207D92046FFF711FF204672
:10491000FFF7C6FFC4F8305D38BD00002DE9F04157
:104920008EB00746884615460021102202A81E4672
:1049300010F04DFE2022002106A810F048FE86B19E
:104940000F22294602A810F06BFE02A8FBF742FCDA
:10495000441CE4B2A64204D91F22291906A810F06B
:104960005FFE0748FFF7E4FB40B2009006AB02AAE7
:1049700041463846FFF731FF0EB0BDE8F08100BF79
:1049800078680620FFF7BCBE0123FFF771BF000067
:1049900038B500254FF4C0630446C0E90055836074
:1049A0002946A0220C3010F012FE104A104B11497B
:1049B000C4E92B23104BC4F8B43004F1B80010F054
:1049C0007FFE4FF48073A4F8BE30052384F8C03016
:1049D000C4F8C15084F8C550A4F8C650C4F8C850F3
:1049E00084F8CC5084F8BD50204638BD0007000143
:1049F00000C81E003E6501080011010000238370FD
:104A000003700372704770472DE9F041067890B04B
:104A10000746884614461D46002E41D105293CD83C
:104A20002D4B232253F8211006A810F0F9FD8DF824
:104A30003B600126002D43D00A23621E27480093C5
:104A4000D2B2802300210196FEF7CAFC23480096CB
:104A500006AB22460221FEF743FC3E78012E1CD114
:104A600097F8AC30434518D9142303FB08771C4A48
:104A70003B8A0A2103A810F039FD03A8FBF7AAFB23
:104A800000EB40004100C1F17C0114480096C9B21E
:104A900003AB2246E5B1FEF723FC10B0BDE8F08180
:104AA000012EFAD190F8AC308B42F6D9142303FBD7
:104AB00001030C4ADB68282106A810F017FDB8E7AF
:104AC0000648009606AB22460221FEF7FBF9C4E732
:104AD000FEF7F8F9E1E700BF746B0108646A06208D
:104AE000A36701089D67010873B5214A04460123A5
:104AF00020480021FEF714F90922009280230021AA
:104B00001C48FEF7F0F90623A27A6372237A111D7E
:104B1000994202DA043BA37201E09A42FBD80C26C8
:104B20000025A37A627A58199042E9B20EDA194444
:104B3000237AC9B25A1A53425341204632460135AC
:104B4000FFF762FF0A36052DF6B2EAD101240A4BBF
:104B50000848009436220021FEF7B4F9074B0548B7
:104B6000009436224E21FEF7ADF902B070BD00BFB1
:104B700014640108646A0620436501087A6201082A
:104B800073B51C4A4178012352F8212005460021C3
:104B90001948FEF7C5F80922174800928023002122
:104BA000FEF7A1F90C26002495F8AC30A34210D8EA
:104BB0000124124B1048009436220021FEF782F99E
:104BC0000F4B0D48009436224E21FEF77BF902B0C0
:104BD00070BD052CECD02B7A1A1B53425341214651
:104BE0003246284601340A36FFF70EFFE4B2F6B229
:104BF000DAE700BF746B0108646A06204F6501089C
:104C00007A620108F7B51F4608260023CDE9006344
:104C10000D46144618480A4664230E21FEF7E0FBB1
:104C20002FB304EB840404EB8404A400B4FBF7F476
:104C300014F0FF041DD00123CDE900630E210E48BE
:104C400023462A46FEF7CCFB04F10C01C9B26E29BB
:104C500028BF6E210E2938BF0E210A2301206A1EAB
:104C6000CDE90030D2B204480423FEF7B9FB03B00B
:104C7000F0BD0E21F1E700BF646A062030B5037A6B
:104C800090F8AC209A4285B004463DD9142505FB26
:104C900003020021D2681D480123FEF741F80922D2
:104CA0001A48009280230021FEF71DF9237A184A42
:104CB00005FB034305211B8A02A810F017FC1348CB
:104CC000022302AA1921FEF72BF8227A05FB0242E1
:104CD0002046137D127C01242821FFF793FF0D4B02
:104CE0000A48009436220221FEF7ECF80A4B0748E6
:104CF000009436224421FEF7E5F8084B034800945F
:104D000036226721FEF7DEF805B030BD646A062062
:104D1000A36701085D650108656501087A620108FD
:104D20002DE9F743037A90F8AC209A42044625D93E
:104D30004FF0140808FB03020021D2683148012318
:104D4000FDF7EEFF092280232E4800920021FEF796
:104D5000CAF8237A08FB03439B69002B4FD1012437
:104D6000294B2848009436220021FEF7ABF8274B48
:104D70002448009436224E21FEF7A4F803B0BDE883
:104D8000F0831A8A771CAA42FFB24FF001092BD197
:104D90000A231C480093324680230021CDF804905A
:104DA000FEF71EFB237A174808FB03433A469B692C
:104DB000CDF8009053F825300221FEF791FA144BFC
:104DC0001048CDF800903A467421FEF789FA0A3669
:104DD0000135F6B2237A08FB0343EAB2197F914208
:104DE000BDD9052DCDD1BAE79B69CDF8009053F818
:104DF000253004483A460221FEF764F8E7E70B261F
:104E00000025E7E7646A06206D6501087A620108FB
:104E100023640108F7B590F8C710224A04462248D7
:104E20000123002908BF024620480021FDF778FF32
:104E3000092280231D4800920021FEF754F894F8BF
:104E4000C7302BB11A4A194801231221FDF768FF18
:104E5000184A164802231E21FDF762FF302500265E
:104E6000022794F8C620F3B29A4210D80124124BBC
:104E70000E48009432220221FEF724F80F4B0B4813
:104E8000009432224E21FEF71DF803B0F0BD2946F2
:104E90000B4B064800971E220C35FEF713F801361F
:104EA000EDB2DEE77C65010888650108646A0620CA
:104EB00091650108AB6501083E630108A362010822
:104EC0003B62010813B5124A124801230021FDF785
:104ED00027FF092200920F4880230021FEF703F8E4
:104EE00001240D4A0B4801231C21FDF719FF0B4B30
:104EF000084800942D220F21FDF7E4FF084B0548D8
:104F000000942D224621FDF7DDFF02B010BD00BF49
:104F1000B0650108646A0620BD650108CD65010819
:104F2000D665010810B504461348FDF7E1FE237865
:104F3000052B07D8DFE803F0030B0F13171B2046E0
:104F4000FFF7D2FDBDE810400B48FDF7D3BE204669
:104F5000FFF716FEF6E72046FFF790FEF2E7204641
:104F6000FFF7DEFEEEE72046FFF754FFEAE72046B4
:104F7000FFF7A8FFE6E700BF646A062001238370FD
:104F8000FFF7D0BF38B50D460021044680F8AC10BD
:104F9000A0220C3010F01BFB052D28D8DFE805F00F
:104FA00003283A4E5B6A364AE26094F8AE2094F8E1
:104FB000AD30A2840922238222850A23314A324954
:104FC000A382E26284F83030304A94F8AF30216234
:104FD00062632F4994F8B02023870123A387A4F8A4
:104FE0005030A164A4F84C20042384F8AC3038BDC0
:104FF00094F8B130274AB4F8B2102748E26023820F
:105000000A22FF236282A3822062A184E284238594
:105010000223EAE7214AE260214AA261032294F8CE
:10502000B430227794F8B5201E492382A28402234B
:105030001422A3822162E3842285D6E794F8BD304E
:10504000194A1A49E260238294F8BE2021620123A2
:10505000A382A284DBE794F8BF30154A1549E260C9
:10506000238294F8C02021620123A382E384A284D6
:105070003C23CCE7104BE360104B2362C8E700BF32
:10508000E065010800000020E7650108F0650108FF
:10509000F86501080866010813660108246601081E
:1050A000280000202E660108886501083B6601087B
:1050B0004766010855660108626601086A660108CC
:1050C0004378F3B9037A1BB9038A80F8AD3070478F
:1050D000012B03D1838C80F8AE307047022B06D1B0
:1050E000038F003B18BF012380F8AF307047032BBC
:1050F00041D1B0F84C30003B18BF012380F8B030EC
:105100007047012B0BD1037A1BB9038A80F8B130A9
:105110007047012B2FD1838CA0F8B2307047022B3F
:1051200024D1037A1BB9038A80F8B4307047012B6D
:1051300021D1838C80F8B5307047037A012B1AD1C6
:10514000838C003B18BF012380F8BE307047037A80
:1051500033B9038A003B18BF012380F8BF30704782
:10516000012B08D1838C80F8C0307047032BE4D02A
:10517000042BECD07047704783782DE9F04104464A
:105180008BB10378052B0ED8DFE813F006002E0054
:1051900060007D009F00060141291DD005D83229FD
:1051A0000BD0382911D0002005E042294FF0FF3103
:1051B00018BF0021C8B2BDE8F081237A0BB1013BD2
:1051C00023722046FFF7AEFEEDE7037A427A013AFA
:1051D0009342F6DA0133F3E7017A4170FFF7D2FE2A
:1051E00000232372012317E041290ED007D832296A
:1051F000E3D03829D7D1037A90F8AC20E7E74229E9
:10520000D1D1002303704378DAE7037A142202FB3A
:105210000302916911B103232370D2E7928A0AB184
:105220000223F9E74278032A0AD1002BC9D10422CC
:10523000027080F8C630C0F8C13080F8C530C0E7D1
:10524000052ABED1012BBCD10270BAE74229AAD8E7
:105250004029C7D801F0FD03342BA4D1027A1423CE
:1052600003FB02023629138A08D1918A994201D997
:10527000013313822046FFF723FFA3E7518A9942A7
:10528000F8D2013BF5E741291CD00ED832290FD0C6
:10529000382988D1037A142202FB0303197F1A8A62
:1052A00001398A428DDA01320AE042299AD07AE73E
:1052B000037A142202FB03031A8A002A81D0013ADE
:1052C0001A827EE701230370D4E7A1F13003092B92
:1052D00049D890F8C620032A3FF673AF531C024406
:1052E000DBB280F8C63082F8C110C2180027042B48
:1052F00082F8C1707FF465AF90F8C76000F1C10516
:10530000CEB100F1C80841462846FAF759FF0646D3
:1053100058B9414604F1B80010F0D2F9012384F8DD
:10532000BD30237084F8C7604BE784F8C670C4F8BA
:10533000C1702F7145E700F1B8012846FAF740FF28
:1053400058B94FF48073C4F8C80084F8CC00A4F8AE
:10535000C630C4F8C100287133E784F8C660C4F8C9
:10536000C1602E712DE7422910D043297FF41BAF75
:1053700090F8C630002B3FF424AF013BDBB280F83D
:10538000C6300344002283F8C1201AE701230370CA
:10539000002380F8C73014E7413901293FF603AFF5
:1053A000002339E770B500F548360025012304468F
:1053B00005702946A6F8FC331844A6F8F45186F87F
:1053C000FE53A12210F003F92946102204F1A20095
:1053D00010F0FDF82946084AA4F8B25004F1B400D0
:1053E00010F0F5F84FF40172294606F5FC7010F044
:1053F000EEF8204670BD00BF4021030010B5A12289
:1054000004460021013010F0E2F81022002104F1DE
:10541000A20010F0DCF80023A4F8B230237010BD15
:10542000FFF7ECBF00B5C3B001ABADF808100948F9
:105430000190110AADF80A208DF80D108DF80E209C
:105440001946022204488DF80C20FEF70AFE43B0EC
:105450005DF804FBAA3101007868062010B500F55C
:1054600048344FF4FA72002104F5FE7010F0AFF8E2
:10547000002384F8FB3184F8F833A4F8F83110BD28
:105480002DE9F84300F548341E4694F8F8339DF8AA
:105490002480074615461BB1B4F8F8318B421AD068
:1054A00006EB86035B014FF00009A4F8F811A4F89D
:1054B000F03384F8FA6184F8FB910FF071FE012358
:1054C000C4F8F40384F8F8334FF4FA72494604F54B
:1054D000FE7010F07CF895B3AE4230D3013D05EB81
:1054E00085056D01ADB205EB0803B3F5FA7F06DA69
:1054F00004F5FE7008994246284410F0E9F894F843
:10550000FB310133DBB2B34284F8FB310BD3002310
:1055100084F8EF3304F5FE70FAF75CFEA4F8F003AC
:105520000120BDE8F8830FF03BFED4F8F433C01A35
:1055300047F23053984202D93846FFF78FFF0020D8
:10554000EFE72DE9F84300F548330E4693F8F48170
:1055500000F1B404002542F61009EBB2984501D8D9
:10556000002708E020463146FAF72AFE2746013593
:105570004C440028F1D13846BDE8F8832DE9F047C6
:1055800007468846FFF7DDFF044650BB07F548395C
:1055900099F8F451132D24D842F610035D4305F118
:1055A000B4047E193C444FF0000A0F2241462046C5
:1055B000C43510F035F886F8C3A01F22414678198B
:1055C00010F02EF886F8E3A006F5005306F52356F2
:1055D000A3F8BCA8C6F800A099F8F431013389F803
:1055E000F4312046BDE8F087F8B51746FFF7C6FF4F
:1055F000044620B300F5005696F80858312D09D915
:1056000000F1FC0142F20C72303031250FF0C6FF80
:1056100086F80858CC2202FB054039463030013567
:1056200010F056F886F80858D7F8C430C6F80C3889
:1056300097F8C83013B997F8C9300BB10120F8BDFD
:1056400096F80938013386F80938F7E72DE9F04F65
:10565000042BC5B00546884657D91688D77892F8E6
:1056600002A076BA1FFA86F9043B02F1040B4A46FF
:10567000DCB2FFF7D7FE5249424603A80FF06CFF99
:10568000012F45D10F2203A90DF14600ADF844606A
:105690000FF0C6FF4B490F220DF156000FF0C0FF6F
:1056A000A02C28BFA024224659460DF1660010F018
:1056B0000FF804F588730DEB0304002604F8AA6CB8
:1056C0000FF06EFD4290284605F5483511AA03A952
:1056D000ADF80C618DF80E71FFF786FF95F8FE337B
:1056E0003948013385F8FE333946FDF7E1FD374887
:1056F000FBF76BFA364A282103AB07A80FF0F6FE3A
:105700003449314807AAFDF721FE45B0BDE8F08FC6
:10571000CDE900B43B46524649462846FFF7B0FE65
:105720000028F2D0ADF8446003A905F548360F22F1
:105730000DF146000FF074FF22490F220DF15600C3
:105740000FF06EFFB6F8F043A02C28BFA02422462D
:1057500006F5FE710DF166000FF0BAFF04F58873CF
:105760000DEB0304002704F8AA7C0FF019FD0124B7
:1057700011AA429003A92846ADF80C718DF80E418C
:10578000FFF732FF96F8FE330F48234486F8FE33C6
:105790002146FDF78DFD0D48FBF717FA03AB0E4AC6
:1057A000282107A80FF0A2FE0A49074807AAFDF71B
:1057B000CDFD284645B0BDE8F04FFFF74FBE00BF16
:1057C0005F6701089C610108646A0620B8690620C9
:1057D000646701087A67010883670108F8B500F576
:1057E00028360025044605804560294604F52937FA
:1057F0000C4AC6F8485486F84C5408300FF0E7FEBF
:105800002946A12207F14D000FF0E1FE10222946A2
:1058100007F1EE000FF0DBFE4FF42043A6F8FE3454
:105820002046F8BD40A40200002303807047704763
:105830002DE9F0411E4600F5283392B093F8483424
:105840008B4207460C46154668D956B10B230121F9
:10585000013ACDE900313F488023D2B20021FDF763
:10586000BFFD42F2D0135C4307EB040808F5005873
:1058700004F1080398F8D1213B44002A51D0364A5C
:10588000222109A80FF032FE01230093314809AB11
:105890002A460221002E46D0FDF722FD98F8D0219D
:1058A0000AB3013AAC2104F1380301FB02331F446F
:1058B0001622394602A80FF0B3FE002338468DF8B1
:1058C0001E30FAF787FC162803D9244902A80FF0E6
:1058D00086FE01236A1C00931E48D2B202AB02214D
:1058E00026B3FDF7FDFC98F8D131BBB11C4A052168
:1058F00002A80FF0FBFD02A8FAF76CFC00EB4000D9
:105900004000C0B2C0F17C04E4B296B10123009320
:10591000104802AB2A462146FDF7E2FC12B0BDE872
:10592000F081104AACE7FDF7CDFAB7E7FDF7CAFA08
:10593000D9E7831CC0F17B0109220126CDE90026AD
:10594000044803F0FE032A46C9B2FDF749FD00965C
:10595000DEE700BF646A062096670108DA6801087E
:10596000A36701089B67010870B586B000F528346D
:10597000A023009394F8FE34164A0A2103A80FF0DE
:10598000B5FD03A8FAF726FC00EB4001490001260B
:10599000C1F17E0103AB10480096242201F0FE0104
:1059A000FDF790FA94F8FE440B4804250023CDE956
:1059B0000053A40828232C225621FDF711FDCDE920
:1059C0000056054823462C225621FDF709FD06B056
:1059D00070BD00BFA0670108646A062007B50123F7
:1059E0000A4607480021FDF79BF909220448009266
:1059F00080230021FDF777FA03B05DF804FB00BFB8
:105A0000646A0620F7B51249124CFFF7E7FF01233D
:105A1000114A12481E21FDF783F9237801332370C0
:105A20000025012604272378E9B203F003038B4203
:105A300001D803B0F0BDC9003C31CDE9007607487C
:105A40000423282201F0FC01FDF7CAFC0135EAE736
:105A5000A6670108A0030020AF670108646A06205A
:105A600037B51C4615460B4631B10122009210484D
:105A700036220021FDF726FA2DB10D4801232A46D2
:105A80003621FDF74DF984B12046FAF7A3FB00EB70
:105A9000400041000123C1F17E01009304482346E8
:105AA000362201F0FE01FDF70DFA03B030BD00BF54
:105AB000646A06202DE9F041044604F528372049A0
:105AC000FFF78CFF97F84864CEB91E4A1E480123A1
:105AD0001E21FDF725F91D4A1B4801232821FDF74A
